{
  "_format": "hh-sol-artifact-1",
  "contractName": "SimpleToken",
  "sourceName": "contracts/SimpleToken.sol",
  "abi": [
    {
      "inputs": [
        {
          "internalType": "uint256",
          "name": "initialSupply",
          "type": "uint256"
        }
      ],
      "stateMutability": "nonpayable",
      "type": "constructor"
    },
    {
      "anonymous": false,
      "inputs": [
        {
          "indexed": true,
          "internalType": "address",
          "name": "from",
          "type": "address"
        },
        {
          "indexed": true,
          "internalType": "address",
          "name": "to",
          "type": "address"
        },
        {
          "indexed": false,
          "internalType": "uint256",
          "name": "value",
          "type": "uint256"
        }
      ],
      "name": "Transfer",
      "type": "event"
    },
    {
      "inputs": [
        {
          "internalType": "address",
          "name": "",
          "type": "address"
        }
      ],
      "name": "balances",
      "outputs": [
        {
          "internalType": "uint256",
          "name": "",
          "type": "uint256"
        }
      ],
      "stateMutability": "view",
      "type": "function"
    },
    {
      "inputs": [
        {
          "internalType": "address",
          "name": "to",
          "type": "address"
        },
        {
          "internalType": "uint256",
          "name": "amount",
          "type": "uint256"
        }
      ],
      "name": "transfer",
      "outputs": [
        {
          "internalType": "bool",
          "name": "",
          "type": "bool"
        }
      ],
      "stateMutability": "nonpayable",
      "type": "function"
    }
  ],
  "bytecode": "0x6080604052348015600f57600080fd5b506040516105e33803806105e38339818101604052810190602f919060ad565b806000803373ffffffffffffffffffffffffffffffffffffffff1673ffffffffffffffffffffffffffffffffffffffff168152602001908152602001600020819055505060d5565b600080fd5b6000819050919050565b608d81607c565b8114609757600080fd5b50565b60008151905060a7816086565b92915050565b60006020828403121560c05760bf6077565b5b600060cc84828501609a565b91505092915050565b6104ff806100e46000396000f3fe608060405234801561001057600080fd5b50600436106100365760003560e01c806327e235e31461003b578063a9059cbb1461006b575b600080fd5b610055600480360381019061005091906102b2565b61009b565b60405161006291906102f8565b60405180910390f35b6100856004803603810190610080919061033f565b6100b3565b604051610092919061039a565b60405180910390f35b60006020528060005260406000206000915090505481565b6000816000803373ffffffffffffffffffffffffffffffffffffffff1673ffffffffffffffffffffffffffffffffffffffff168152602001908152602001600020541015610136576040517f08c379a000000000000000000000000000000000000000000000000000000000815260040161012d90610412565b60405180910390fd5b816000803373ffffffffffffffffffffffffffffffffffffffff1673ffffffffffffffffffffffffffffffffffffffff16815260200190815260200160002060008282546101849190610461565b92505081905550816000808573ffffffffffffffffffffffffffffffffffffffff1673ffffffffffffffffffffffffffffffffffffffff16815260200190815260200160002060008282546101d99190610495565b925050819055508273ffffffffffffffffffffffffffffffffffffffff163373ffffffffffffffffffffffffffffffffffffffff167fddf252ad1be2c89b69c2b068fc378daa952ba7f163c4a11628f55a4df523b3ef8460405161023d91906102f8565b60405180910390a36001905092915050565b600080fd5b600073ffffffffffffffffffffffffffffffffffffffff82169050919050565b600061027f82610254565b9050919050565b61028f81610274565b811461029a57600080fd5b50565b6000813590506102ac81610286565b92915050565b6000602082840312156102c8576102c761024f565b5b60006102d68482850161029d565b91505092915050565b6000819050919050565b6102f2816102df565b82525050565b600060208201905061030d60008301846102e9565b92915050565b61031c816102df565b811461032757600080fd5b50565b60008135905061033981610313565b92915050565b600080604083850312156103565761035561024f565b5b60006103648582860161029d565b92505060206103758582860161032a565b9150509250929050565b60008115159050919050565b6103948161037f565b82525050565b60006020820190506103af600083018461038b565b92915050565b600082825260208201905092915050565b7f4e6f7420656e6f75676820746f6b656e73000000000000000000000000000000600082015250565b60006103fc6011836103b5565b9150610407826103c6565b602082019050919050565b6000602082019050818103600083015261042b816103ef565b9050919050565b7f4e487b7100000000000000000000000000000000000000000000000000000000600052601160045260246000fd5b600061046c826102df565b9150610477836102df565b925082820390508181111561048f5761048e610432565b5b92915050565b60006104a0826102df565b91506104ab836102df565b92508282019050808211156104c3576104c2610432565b5b9291505056fea2646970667358221220884867730da0b2cbf177cbb63f66748ae8e570bc60ad71747879355661dd953e64736f6c634300081c0033",
  "linkReferences": {},
  "deployedLinkReferences": {}
}